:100000000C9434000C9449000C9449000C94490061
:100010000C9449000C9449000C9449000C9449003C
:100020000C9449000C9449000C9449000C9449002C
:100030000C9449000C9449000C9449000C9449001C
:100040000C9449000C9493000C9463000C944900A8
:100050000C9449000C9449000C9449000C944900FC
:100060000C9449000C94490011241FBECFEFD8E036
:10007000DEBFCDBF11E0A0E0B1E0E2EDF1E002C0F3
:1000800005900D92A434B107D9F70E94C3000C94D7
:10009000E7000C94000020E124B917B820E82AB941
:1000A0002FEF25B928B92FE72BB99093C50080937E
:1000B000C40088E98093C1008EE08093C20080EC88
:1000C0008CBD789408951F920F920FB60F92112451
:1000D0002F933F934F935F936F937F938F939F9350
:1000E000AF93BF93CF93EF93FF93C091C60081E28C
:1000F00091E00E94CF008C2F0E94C8000E94E10076
:10010000CEBDFF91EF91CF91BF91AF919F918F9114
:100110007F916F915F914F913F912F910F900FBE03
:100120000F901F9018951F920F920FB60F921124E7
:100130002F933F934F935F936F937F938F939F93EF
:10014000AF93BF93CF93EF93FF93CEB580E091E051
:100150000E94CF008C2F0E94C8000E94E1000E94E4
:10016000E100FF91EF91CF91BF91AF919F918F915E
:100170007F916F915F914F913F912F910F900FBEA3
:100180000F901F90189587E690E00E944B00FFCFDC
:100190009091C00095FFFCCF8093C6000895CF9347
:1001A000DF93EC018881882349F08A3019F48DE0CF
:1001B0000E94C80089910E94C800F4CFDF91CF91BE
:1001C00008958AE00E94C8008DE00C94C800F8945D
:0201D000FFCF5F
:1001D2002841544D454741292056616C756520726E
:1001E20065636569766564206279205350493A20D7
:1001F200002841544D454741292056616C756520C0
:10020200726563656976656420627920555341524F
:04021200543A20003A
:00000001FF
